:10000000D2C00000FEC00000FCC00000FAC000002A
:10001000F8C00000F6C00000F4C00000F2C000000C
:10002000F0C00000EEC00000ECC00000EAC000001C
:10003000E8C00000E6C00000E4C00000E2C000002C
:10004000E0C00000DEC00000DCC00000DAC000003C
:10005000D8C00000D6C00000D4C00000B4C2000068
:10006000D0C0000023C30000F8C20000CAC00000D6
:10007000C8C00000C6C00000C4C00000C2C000006C
:10008000C0C00000BEC00000BCC00000BAC000007C
:10009000B8C00000B6C00000B4C00000B2C000008C
:1000A000B0C00000AEC00000ACC00000AAC000009C
:1000B000A8C00000A6C00000A4C00000A2C00000AC
:1000C000A0C000009EC000009CC000009AC00000BC
:1000D00098C0000096C0000094C0000092C00000CC
:1000E00090C0000000002200250028002B002E00F8
:1000F0003100340002010000050108010B0100007D
:100100002100240027002A002D00300033000101C7
:100110000000040107010A01050505050705080897
:100120000808020202020A0A080804040404010181
:100130000101010101010303030303030303040796
:1001400007070C0C0C0C0C0C0C0C0202020206062D
:100150000606060606060B0B0B0B0B0B0B0B010220
:1001600010202008081020401020408002010201C9
:100170000804020101020408102040808040201081
:1001800008040201800402018040201008040201DA
:100190000804020101020408102040800102040842
:1001A000102040808C0311241FBECFEFD1E2DEBFB0
:1001B000CDBF00E00CBF12E0A0E0B2E0E4E7F1E167
:1001C00000E00BBF02C007900D92A631B107D9F72E
:1001D00023E0A6E1B2E001C01D92A930B207E1F729
:1001E00010E0C3EDD0E000E005C021970109802FA9
:1001F000FE01B2D7C23DD10780E00807B1F721D395
:10020000B7C7FECE90E0FC01E25AFE4F2491FC01FC
:10021000E85EFE4F8491882399F090E0880F991F43
:10022000FC01E250FF4FA591B491FC01EC51FF4F4E
:10023000859194918FB7F894EC91E22BEC938FBF5A
:10024000089580917B00877F80937B0080E480937A
:100250007C0080917A00806480937A0080917A009B
:1002600086FDFCCF809178002091790090E0922B60
:1002700008953FB7F89480911F0290912002A091B9
:100280002102B091220226B5A89B05C02F3F19F08C
:100290000196A11DB11D3FBFBA2FA92F982F882706
:1002A000820F911DA11DB11DBC01CD0142E0660F61
:1002B000771F881F991F4A95D1F70895CF92DF9233
:1002C000EF92FF920F931F93CF93DF936C017A010C
:1002D0008B01C0E0D0E0CE15DF0589F0D8016D912B
:1002E0008D01D601ED91FC910190F081E02DC601C8
:1002F0001995892B11F47E0102C02196ECCFC7011C
:10030000DF91CF911F910F91FF90EF90DF90CF90F1
:100310000895089580E090E00895FC01538D448D88
:10032000252F30E0842F90E0821B930B541710F0A0
:10033000CF96089501970895FC01918D828D9817AD
:1003400061F0828DDF01A80FB11D5D968C91928DB9
:100350009F5F9F73928F90E008958FEF9FEF0895B6
:10036000FC01918D828D981731F0828DE80FF11D7F
:10037000858D90E008958FEF9FEF0895FC01918D9A
:10038000228D892F90E0805C9F4F821B91098F7393
:100390009927089583E292E0F1DF21E0892B09F4A7
:1003A00020E0822F0895FC01848DDF01A80FB11D8C
:1003B000A35ABF4F2C91848D90E001968F7399279B
:1003C000848FA689B7892C93A089B1898C91806488
:1003D0008C93938D848D981306C00288F389E02D49
:1003E00080818F7D80830895EF92FF920F931F93FA
:1003F000CF93DF93EC0181E0888F9B8D8C8D9813D8
:1004000005C0E889F989808185FD23C0F62E0B8D12
:1004100010E00F5F1F4F0F731127E02E8C8DE81235
:100420000BC00FB607FCFACFE889F989808185FFF8
:10043000F5CFCE01B8DFF2CF8B8DFE01E80FF11DB5
:10044000E35AFF4FF0820B8FEA89FB89808180623B
:1004500007C0EE89FF896083E889F989808180641B
:10046000808381E090E0DF91CF911F910F91FF9009
:10047000EF900895CF93DF93EC01888D8823C1F02E
:10048000EA89FB89808185FD05C0A889B9898C919D
:1004900086FD0EC00FB607FCF5CF808185FFF2CF39
:1004A000A889B9898C9185FFEDCFCE017CDFE8CF9B
:1004B000DF91CF91089580E090E0892B19F06ADFF9
:1004C000811125C080E090E0892B41F080E090E030
:1004D000892B21F00E94000081111CC080E090E077
:1004E000892B41F080E090E0892B21F00E940000F0
:1004F000811113C080E090E0892BA1F080E090E0B2
:10050000892B81F00E94000081110AC008950E9489
:100510000000D8CF0E940000E1CF0E940000EACF87
:100520000C94000008958F929F92AF92BF920F9308
:100530001F93CF93DF93CDB7DEB7A1970FB6F89493
:10054000DEBF0FBECDBF19A2423008F44AE08E01D3
:100550000F5D1F4F842E912CA12CB12CA50194016D
:10056000D9D5E62FB901CA0101501109EA3014F4B6
:10057000E05D01C0E95CD801EC93232B242B252BF3
:1005800069F70115110569F0F80101900020E9F7FC
:100590003197AF01401B510BB80183E292E08EDE30
:1005A00002C080E090E0A1960FB6F894DEBF0FBEC7
:1005B000CDBFDF91CF911F910F91BF90AF909F90D2
:1005C0008F900895D1D51F920F920FB60F921124DC
:1005D0002F933F938F939F93AF93BF938091C002CC
:1005E0009091C102A091C202B091C30230911E024B
:1005F00023E0230F2D3720F40196A11DB11D05C066
:1006000026E8230F0296A11DB11D20931E028093A0
:10061000C0029093C102A093C202B093C302809122
:100620001F0290912002A0912102B0912202019616
:10063000A11DB11D80931F0290932002A09321025F
:10064000B0932202BF91AF919F918F913F912F91D3
:100650000F900FBE0F901F9018951F920F920FB61C
:100660000F9211240BB60F922F933F934F935F93EA
:100670006F937F938F939F93AF93BF93EF93FF936A
:1006800083E292E090DEFF91EF91BF91AF919F9155
:100690008F917F916F915F914F913F912F910F902B
:1006A0000BBE0F900FBE0F901F9018951F920F92C8
:1006B0000FB60F9211240BB60F922F938F939F9327
:1006C000EF93FF93E0913302F09134028081E09147
:1006D0003902F0913A0282FD12C0908180913C0271
:1006E0008F5F8F7320913D02821751F0E0913C02A1
:1006F000F0E0ED5DFD4F958F80933C0201C080815D
:10070000FF91EF919F918F912F910F900BBE0F90C2
:100710000FBE0F901F901895E3E2F2E01382128251
:1007200088EE93E0A0E0B0E084839583A683B7834E
:1007300084E092E09183808385EC90E095878487C4
:1007400084EC90E09787868780EC90E0918B808B9B
:1007500081EC90E0938B828B82EC90E0958B848B84
:1007600086EC90E0978B868B118E128E138E148EF2
:10077000E0EDF2E088EC92E0958F848F8CEC92E0D3
:10078000938F828F84EC92E0978F868F10AE10AAA1
:1007900011AA12AA13AA80E090E0AFE7B3E484ABF9
:1007A00095ABA6ABB7AB84E690E0A0E0B0E084A741
:1007B00095A7A6A7B7A7118E108E80E090E0A0E0C5
:1007C000B0E480839183A283B38340E050E060EA89
:1007D00070E4448355836683778340E050E060E8AB
:1007E0007FE3408751876287738784879587A687D1
:1007F000B78780E090E0A0E0BFE3808B918BA28B75
:10080000B38B80E090E0A0E2B1E4848B958BA68B63
:10081000B78B2FB7F8948091C0029091C102A0913C
:10082000C202B091C3022FBF44A555A566A577A506
:10083000841B950BA60BB70B80A391A3A2A3B3A314
:100840000895CF93DF93CDB7DEB728970FB6F8940E
:10085000DEBF0FBECDBF789484B5826084BD84B501
:10086000816084BD85B5826085BD85B5816085BDAB
:1008700080916E00816080936E0010928100809163
:1008800081008260809381008091810081608093EB
:100890008100809180008160809380008091B10010
:1008A00084608093B1008091B00081608093B0003B
:1008B000809191008260809391008091910081608D
:1008C000809391008091900081608093900080914E
:1008D000A10082608093A1008091A100816080933B
:1008E000A1008091A00081608093A00080912101EF
:1008F0008260809321018091210181608093210198
:100900008091200181608093200180917A00846031
:1009100080937A0080917A00826080937A0080913F
:100920007A00816080937A0080917A008068809359
:100930007A001092C1008CE065DC8BE063DC88E01B
:1009400061DC87E05FDC86E05DDC83E05BDCE0911E
:100950003302F091340282E08083E0912F02F09123
:1009600030021082E0913102F091320280E1808306
:1009700010923B02E0913702F091380286E08083CA
:10098000E0913502F0913602808180618083E091B0
:100990003502F0913602808188608083E0913502D3
:1009A000F0913602808180688083E0913502F09179
:1009B000360280818F7D808380E090E0A8ECB2E4F5
:1009C0008093C4029093C502A093C602B093C7025D
:1009D000812C912C9FE7A92E93ECB92E80921A02BC
:1009E00090921B02A0921C02B0921D02C12CD12C2D
:1009F0002FE7E22E23E4F22EC0921602D0921702C5
:100A0000E0921802F0921902809200039092010382
:100A1000A0920203B0920303C0920403D092050394
:100A2000E0920603F0920703809108030091EC0224
:100A30001091ED02D8014D905D906D907C908823CF
:100A400009F44BC0A7019601C301B201FCD21816EC
:100A500034F4F801C082D182E282F3820FC020E038
:100A600030E04FE753ECC301B20137D287FF06C035
:100A7000D8018D929D92AD92BC9213978090F40212
:100A80009090F502A090F602B090F702C090040397
:100A9000D0900503E0900603F0900703A7019601AC
:100AA000C501B401D0D218167CF0C0900003D090DC
:100AB0000103E0900203F0900303A7019601C50132
:100AC000B4010BD287FF3BC0C092F402D092F50272
:100AD000E092F602F092F70232C04092F402509295
:100AE000F5026092F6027092F702E091EA02F0914C
:100AF000EB0280819181A281B3818093F80290936F
:100B0000F902A093FA02B093FB0220E030E04FE735
:100B100053E4C301B20197D21816B4F220E030E0DA
:100B20004FE753ECC301B201D8D187FF08C08092D0
:100B3000F4029092F502A092F602B092F70281E0E0
:100B40008093080396DB4B015C0184EFC82EDD2403
:100B5000D394E12CF12C8DDBDC01CB0188199909B0
:100B6000AA09BB09883E9340A105B10558F0B1E040
:100B7000CB1AD108E108F108E8EE8E0EE3E09E1EE4
:100B8000A11CB11CC114D104E104F10421F759DB0B
:100B90006C01990FEE08FF08F7FE14C0E0912302E4
:100BA000F09124020190F081E02D6DE283E292E069
:100BB000199566277727CB016C197D098E099F0946
:100BC0004AE003C04AE0C701B601ADDC42E050E0B4
:100BD00062E172E083E292E071DB33DBBC01990FEA
:100BE000880B990B80D16093CC027093CD028093D7
:100BF000CE029093CF0280910803882309F406C1A6
:100C00008FB7F8942091C0023091C1024091C20286
:100C10005091C3022D833E834F8358878FBF8091AD
:100C2000F0029091F102A091F202B091F3024D8195
:100C30005E816F817885481B590B6A0B7B0B809115
:100C4000FC029091FD02A091FE02B091FF024817B4
:100C500059076A077B0708F4D9C0E091EA02F091CE
:100C6000EB02C080D180E280F380E091EE02F0914F
:100C7000EF02A70196016081718182819381C8D0C2
:100C80002B013C012091E0023091E1024091E2020F
:100C90005091E302DCD12091F4023091F5024091B1
:100CA000F6025091F702B5D04B015C016093F4025B
:100CB0007093F5028093F6029093F702109104036B
:100CC000209005033090060300910703212F322D59
:100CD000432D502FB8D118166CF4812F922DA32DCF
:100CE000B02F8093F4029093F502A093F602B09394
:100CF000F7021FC08091000390910103A0910203AD
:100D0000B091030389839A83AB83BC839C01AD01BB
:100D1000C501B401E2D087FF0CC029813A814B8123
:100D20005C812093F4023093F5024093F6025093D5
:100D3000F7022091DC023091DD024091DE025091F9
:100D4000DF02C301B20183D12091F4023091F50298
:100D50004091F6025091F7025CD04B015C0120916A
:100D6000F8023091F9024091FA025091FB02C7015A
:100D7000B6014ED02091E4023091E5024091E602A6
:100D80005091E70264D19B01AC01C501B40140D090
:100D90004B015C01212F322D432D502F54D11816B9
:100DA000ACF01091000320900103309002030091F9
:100DB0000303212F322D432D502FB401C5018DD0B7
:100DC00087FD04C0182D292C3A2C0B2DE091EC0244
:100DD000F091ED02812F922DA32DB02F808391836E
:100DE000A283B383C092F802D092F902E092FA0291
:100DF000F092FB028D819E81AF81B8858093F002D5
:100E00009093F102A093F202B093F30254DB9ACED6
:100E10005058BB27AA270ED0DCC0CDD030F0D2D09E
:100E200020F031F49F3F11F41EF4C2C00EF4E0959F
:100E3000E7FBB8C0E92FDED080F3BA17620773076B
:100E40008407950718F071F49EF5F6C00EF4E0954E
:100E50000B2EBA2FA02D0B01B90190010C01CA0174
:100E6000A0011124FF27591B99F0593F50F4503E1F
:100E700068F11A16F040A22F232F342F4427585F11
:100E8000F3CF469537952795A795F0405395C9F729
:100E90007EF41F16BA0B620B730B840BBAF09150E1
:100EA000A1F0FF0FBB1F661F771F881FC2F70EC080
:100EB000BA0F621F731F841F48F487957795679553
:100EC000B795F7959E3F08F0B3CF9395880F08F03C
:100ED0009927EE0F97958795089540D008F481E003
:100EE0000895E89409C097FB3EF49095809570951D
:100EF00061957F4F8F4F9F4F9923A9F0F92F96E966
:100F0000BB279395F695879577956795B795F111DA
:100F1000F8CFFAF4BB0F11F460FF1BC06F5F7F4F77
:100F20008F4F9F4F16C0882311F096E911C0772389
:100F300021F09EE8872F762F05C0662371F096E892
:100F4000862F70E060E02AF09A95660F771F881F61
:100F5000DAF7880F9695879597F90895990F000805
:100F6000550FAA0BE0E8FEEF16161706E807F9077B
:100F7000C0F012161306E407F50798F0621B730B16
:100F8000840B950B39F40A2661F0232B242B252B97
:100F900021F408950A2609F4A140A6958FEF811D3A
:100FA000811D089597F99F6780E870E060E00895DB
:100FB0009FEF80EC089500240A9416161706180671
:100FC0000906089500240A9412161306140605064D
:100FD0000895092E0394000C11F4882352F0BB0FDE
:100FE00040F4BF2B11F460FF04C06F5F7F4F8F4F41
:100FF0009F4F089557FD9058440F551F59F05F3F7C
:1010000071F04795880F97FB991F61F09F3F79F02A
:1010100087950895121613061406551FF2CF4695AC
:10102000F1DF08C0161617061806991FF1CF86952E
:101030007105610508940895E894BB276627772712
:10104000CB0197F908958ADF08F48FEF08950BD04C
:10105000C0CFB1DF28F0B6DF18F0952309F0A2CF9A
:10106000A7CF1124EACFC6DFA0F3959FD1F3950F48
:1010700050E0551F629FF001729FBB27F00DB11D1C
:10108000639FAA27F00DB11DAA1F649F6627B00DAC
:10109000A11D661F829F2227B00DA11D621F739F95
:1010A000B00DA11D621F839FA00D611D221F749FA3
:1010B0003327A00D611D231F849F600D211D822FEA
:1010C000762F6A2F11249F5750408AF0E1F0882331
:1010D0004AF0EE0FFF1FBB1F661F771F881F91503E
:1010E0005040A9F79E3F510570F05CCFA6CF5F3FFF
:1010F000ECF3983EDCF3869577956795B795F79571
:10110000E7959F5FC1F7FE2B880F911D96958795F8
:1011100097F90895A1E21A2EAA1BBB1BFD010DC071
:10112000AA1FBB1FEE1FFF1FA217B307E407F50797
:1011300020F0A21BB30BE40BF50B661F771F881F73
:10114000991F1A9469F760957095809590959B0109
:10115000AC01BD01CF010895EE0FFF1F881F8BBFAB
:101160000790F691E02D199481E090E0F89400C08A
:04117000F894FFCF21
:1011740000000000F4015E018D013A02BE019C01F1
:06118400B0010D0A00009D
:00000001FF
